:020000040000FA
:100000000830AD00303084003008A1000008A200A4
:10001000A21B3E20A21F46202320840AAD0B0628E7
:100020001220112800000330AD002F08A200031495
:10003000A21F0310A20C0314AD0B18282208A00065
:100040000030AF00080000002208A400A11B3828DF
:10005000A21B2B282F28A11F3D28A11B2F28A20956
:10006000A20A2108A207A21F3D282408A1003D28BA
:10007000A21B2F282208A1003D280800000022080A
:10008000A400A403A4092408AF0208000000220869
:04009000AF070800AE
:02400E00FB3F76
:00000001FF
