:020000040000FA
:100000008B170B16A1010029A2000608FE39A000DB
:0A001000211422088B1006100900CD
:100200000000900191019201A301A40193015030DB
:100210009300211C09292110A01A2D21201A29211F
:10022000A019252120192121201B1921A0181921ED
:10023000092902309100A301A401792179219101BA
:1002400008000530A307312108000A30A307312137
:1002500008001930A307312108006430A3073121B9
:100260000800A31B4329231F4329A31A4329231E44
:100270004329A319432923194329A31843292318E0
:10028000432949214829031413082302031849214B
:10029000080013082302A400241B5A29A41A5A296F
:1002A000241A5729A419622924196A297229A41920
:1002B0005A2962291930A40210309000792179213D
:1002C00090014C290A30A40208309000792179214C
:1002D00090014C290530A402043090007921792145
:1002E00090014C29FF309200792179219201A301DC
:0E02F00008000330A5000000A50B7C290800C3
:02400E00F23F7F
:00000001FF
